:020000040000FA
:06000000CAEF26F0120019
:020006001200E6
:08000800F2A402D021EF20F068
:100010009EA002D085EF20F09EAA02D067EF1DF0CF
:10002000A1A202D07EEF23F01200D08EF28E120039
:100030000800914E00006000000067000000864E3E
:100040000000550F00000B000000854E000060020C
:10005000000001000000714E0000410F000014007C
:100060000000304E0000000F0000410000002E4E46
:1000700000005C02000002000000204E0000EE00C4
:1000800000000E000000E64D0000000200003A00F3
:0200900000006E
:0E009200D9CFE6FFE1CFD9FF060EE126000E22
:1000A000E66EE66A32EC25F0E552E55200018D6F0E
:1000B000F0EC26F0010EE66EE66A32EC25F0E55231
:1000C000E55200018E6FF0EC26F000018D51E66ED6
:1000D000D950010FE96EDACFEAFFE552E750EE6E34
:1000E000ED6AD950010FE96EDACFEAFFEE50ED6EFE
:1000F000EF6A8E51146E156AD950010FE96EDACF8E
:10010000EAFF1450EE121550ED12020EE66EE66A8A
:1001100032EC25F0E552E5520001906FF0EC26F04C
:10012000030EE66EE66A32EC25F0E552E552000178
:10013000916FF0EC26F000019051E66ED950030F5C
:10014000E96EDACFEAFFE552E750EE6EED6AD9507C
:10015000030FE96EDACFEAFFEE50ED6EEF6A9151D0
:10016000146E156AD950030FE96EDACFEAFF145006
:10017000EE121550ED12DF6A050EDF5C01E3FED0D2
:10018000DF50E824040FE66EE66A32EC25F0E55213
:10019000E552E66EDF50E824EA6A930FE96E000E3E
:1001A000EA22E552E750EF6EE66EDF50090DF3CF1D
:1001B000E9FFF4CFEAFF600EE926000EEA22E552DD
:1001C000E750EE6EED6AF0EC26F0DF50090DF3CF4C
:1001D000E9FFF4CFEAFF600EE926000EEA22EE50B6
:1001E000ED6EEF6ADF50E824040F010FE66EE66A59
:1001F00032EC25F0E552E552E66EDF50E824010FBF
:10020000EA6A930FE96E000EEA22E552E750EF6EBC
:10021000146E156ADF50090DF3CFE9FFF4CFEAFF42
:10022000600EE926000EEA221450EE121550ED126F
:10023000F0EC26F0DF50E8240E0FE66EE66A32ECB2
:1002400025F0E552E552E66EDF50E8240A0FEA6A2F
:10025000930FE96E000EEA22E552E750EF6EE66E6C
:10026000DF50090DF3CFE9FFF4CFEAFF600EE92676
:10027000000EEA22020EE926000EEA22E552E750BD
:10028000EE6EED6AF0EC26F0DF50090DF3CFE9FFDA
:10029000F4CFEAFF600EE926000EEA22020EE926FC
:1002A000000EEA22EE50ED6EEF6ADF50E8240F0FE9
:1002B000E66EE66A32EC25F0E552E552E66EDF5076
:1002C000E8240A0F010FEA6A930FE96E000EEA2292
:1002D000E552E750EF6E146E156ADF50090DF3CF4B
:1002E000E9FFF4CFEAFF600EE926000EEA22020ED3
:1002F000E926000EEA221450EE121550ED12F0EC31
:1003000026F01A0EDF24E66EE66A32EC25F0E5529E
:10031000E552E66EDF50E824010FEA6AB70FE96E96
:10032000000EEA22E552E750EF6EE66EDF50090D4F
:10033000F3CFE9FFF4CFEAFF600EE926000EEA22D0
:10034000080EE926000EEA22E552E750EF6EF0ECC7
:1003500026F0DF50090DF3CFE9FFF4CFEAFF600E7E
:10036000E926000EEA22070EE926000EEA22EF6ACD
:10037000DFCFE6FF6DDBE552DF2AFED6E66A010E2F
:10038000DBCF14F0020EDBCF15F0166A176A14C02B
:10039000E6FF15C0E6FF16C0E6FF17C0E6FFE66AF7
:1003A000030EDBCFE6FFE66AFCEC14F0186E080ED5
:1003B000E15E1850E76E050EE7CFDBFFAAEC16F002
:1003C000E76E050EE7CFDBFF0001C66B010EE66EA0
:1003D000110EE66E10EC11F0E552E552010EE66EDC
:1003E0000D0EE66E10EC11F0E552E552010EE66ED0
:1003F000090EE66E10EC11F0E552E552010EE66EC4
:10040000050EE66E10EC11F0E552E552010EE66EB7
:10041000E66E10EC11F0E552E552888088828884FF
:1004200088868888888A060EE15C02E2E16AE552E5
:10043000E16EE552E7CFD9FF1200D9CFE6FFE1CF59
:10044000D9FF070EE126020EDB6A030EDB6A040EFB
:10045000DB6A050EDB6A00018F0501E07BD08DC0F1
:10046000E6FF000EE66EE66AC6EC24F0E552E552C1
:10047000E552F0EC26F08EC0E6FF010EE66EE66A6D
:10048000C6EC24F0E552E552E552F0EC26F000010E
:100490008D51E66ED950020FE96EDACFEAFFE552D0
:1004A000E750EE6EED6AD950020FE96EDACFEAFF3F
:1004B000EE50ED6EEF6A8E51146E156AD950020F30
:1004C000E96EDACFEAFF1450EE121550ED1290519A
:1004D000E66ED950040FE96EDACFEAFFE552E75035
:1004E000EE6EED6AD950040FE96EDACFEAFFEE50F6
:1004F000ED6EEF6A9151146E156AD950040FE96ED2
:10050000DACFEAFF1450EE121550ED1289EC16F016
:10051000C8EC16F0E66A020EDBCF14F0030EDBCF58
:1005200015F0166A176A14C0E6FF15C0E6FF16C07C
:10053000E6FF17C0E6FFE66A040EDBCFE6FFE66AD9
:10054000FCEC14F0186E080EE15E1850AAEC16F0E0
:1005500000018F6B920501E07BD090C0E6FF020E98
:10056000E66EE66AC6EC24F0E552E552E552F0ECA0
:1005700026F091C0E6FF030EE66EE66AC6EC24F0B4
:10058000E552E552E552F0EC26F000019051E66E9E
:10059000D950040FE96EDACFEAFFE552E750EE6E6C
:1005A000ED6AD950040FE96EDACFEAFFEE50ED6E36
:1005B000EF6A9151146E156AD950040FE96EDACFC3
:1005C000EAFF1450EE121550ED128D51E66ED9501F
:1005D000020FE96EDACFEAFFE552E750EE6EED6A00
:1005E000D950020FE96EDACFEAFFEE50ED6EEF6AF6
:1005F0008E51146E156AD950020FE96EDACFEAFFF8
:100600001450EE121550ED1289EC16F0C8EC16F0ED
:10061000E66A020EDBCF14F0030EDBCF15F0166A8C
:10062000176A14C0E6FF15C0E6FF16C0E6FF17C044
:10063000E6FFE66A040EDBCFE6FFE66AFCEC14F0A8
:10064000186E080EE15E1850AAEC16F00001926BCD
:10065000A70501E0F5D0060EDB6ADF6A050EDF5C58
:1006600001E3ECD0060EDB50EA6A930FE96E000E50
:10067000EA22EF50E66E060EDB50040FE66EE66AE5
:10068000C6EC24F0E552E552E552F0EC26F0060EF9
:10069000DB28EA6A930FE96E000EEA22EF50E66E5D
:1006A000060EDB50040F010FE66EE66AC6EC24F07E
:1006B000E552E552E552F0EC26F0060EDB50EA6A10
:1006C000930FE96E000EEA22EF50E66EDF50090D3F
:1006D000F3CFE9FFF4CFEAFF600EE926000EEA222D
:1006E000E552E750EE6EED6ADF50090DF3CFE9FFFA
:1006F000F4CFEAFF600EE926000EEA22EE50ED6E1E
:10070000EF6A060EDB28EA6A930FE96E000EEA2212
:10071000EF50146E156ADF50090DF3CFE9FFF4CFE7
:10072000EAFF600EE926000EEA221450EE12155080
:10073000ED12060EDB500A0FEA6A930FE96E000E07
:10074000EA22EF50E66E060EDB500E0FE66EE66A0A
:10075000C6EC24F0E552E552E552F0EC26F0060E28
:10076000DB500A0F010FEA6A930FE96E000EEA22CE
:10077000EF50E66E060EDB500E0F010FE66EE66AD6
:10078000C6EC24F0E552E552E552F0EC26F0060EF8
:10079000DB500A0FEA6A930FE96E000EEA22EF506F
:1007A000E66EDF50090DF3CFE9FFF4CFEAFF600EEC
:1007B000E926000EEA22020EE926000EEA22E552A0
:1007C000E750EE6EED6ADF50090DF3CFE9FFF4CF8D
:1007D000EAFF600EE926000EEA22020EE926000E6C
:1007E000EA22EE50ED6EEF6A060EDB500A0F010FA3
:1007F000EA6A930FE96E000EEA22EF50146E156A52
:10080000DF50090DF3CFE9FFF4CFEAFF600EE926D0
:10081000000EEA22020EE926000EEA221450EE1221
:100820001550ED12DF2A020E146E060EDBCFE7FF25
:100830001450E726060EE7CFDBFF10D70001A76BA9
:10084000DF6A050EDF5C6EE2DF50EA6AB20FE96E26
:10085000000EEA22EF0464E1DF50E824EA6AA80F00
:10086000E96E000EEA22EF50E66EDF50090DF3CF7D
:10087000E9FFF4CFEAFF600EE926000EEA22040E3B
:10088000E926000EEA22E552E750EE6EED6ADF50EF
:10089000090DF3CFE9FFF4CFEAFF600EE926000E61
:1008A000EA22040EE926000EEA22EE50ED6EEF6A0F
:1008B000DF50E824010FEA6AA80FE96E000EEA2271
:1008C000EF50146E156ADF50090DF3CFE9FFF4CF36
:1008D000EAFF600EE926000EEA22040EE926000E69
:1008E000EA221450EE121550ED12DF50090DF3CF2D
:1008F000E9FFF4CFEAFF600EE926000EEA22070EB8
:10090000E926000EEA22010EEF6EDFCFE6FFA0D847
:10091000E552DF50EA6AB20FE96E000EEA22EF6A92
:10092000DF2A8FD7DF6A050EDF5C5FE2DF50EA6AFD
:10093000C10FE96E000EEA22EF0455E1DF50E82412
:10094000010FEA6AB70FE96E000EEA22EF50E66E79
:100950001A0EDF24E66EE66AC6EC24F0E552E55294
:10096000E552F0EC26F0DF50E824010FEA6AB70FF9
:10097000E96E000EEA22EF50E66EDF50090DF3CF6C
:10098000E9FFF4CFEAFF600EE926000EEA22080E26
:10099000E926000EEA22E552E750EF6EDF50E82428
:1009A000010FEA6AB70FE96E000EEA22EF5014E178
:1009B000DF50090DF3CFE9FFF4CFEAFF600EE9261F
:1009C000000EEA22040EE926000EEA22EE6AED6A23
:1009D000DFCFE6FF3DD8E552DF50EA6AC10FE96E8E
:1009E000000EEA22EF6ADF2A9ED7010EE66E110E94
:1009F000E66E10EC11F0E552E552010EE66E0D0EBA
:100A0000E66E10EC11F0E552E552010EE66E090EAD
:100A1000E66E10EC11F0E552E552010EE66E050EA1
:100A2000E66E10EC11F0E552E552010EE66EE66E50
:100A300010EC11F0E552E552A8DAD4DB070EE15CC8
:100A400002E2E16AE552E16EE552E7CFD9FF12001A
:100A5000D9CFE6FFE1CFD9FF070EE126FE0EDB502E
:100A6000090DF3CFE9FFF4CFEAFF600EE926000E8F
:100A7000EA22040EE926000EEA22010EEECFDBFF89
:100A8000020EEDCFDBFF030EDB6AD950040FE96ED7
:100A9000DACFEAFFEE6AEE6AEE6ADF6A040EDF5C26
:100AA0003CE2010EDBCF16F0020EDBCF17F00A0E90
:100AB0000D6E0E6A16C008F017C009F094EC26F00F
:100AC00004C016F005C017F0300E1626000E1722CF
:100AD000D950030F146EDACF15F0040ED880DF540E
:100AE000FF0F0F011424E96E000E1520EA6E16C0E8
:100AF000EFFFD950010FE96EDACFEAFF0A0E0D6E53
:100B00000E6AEECF08F0EDCF09F094EC26F008C0A5
:100B1000EEFF09C0EDFFDF2AC1D7040EE66EFE0E20
:100B2000DB50040DF350E66ED950030FE66E000E55
:100B3000DA20E66EC6EC0FF0E552E552E552E552DA
:100B4000070EE15C02E2E16AE552E16EE552E7CFB1
:100B5000D9FF1200D9CFE6FFE1CFD9FF030EE1267E
:100B6000DF6ADF50146E030EE15C03E200D0E16A3D
:100B7000E552E16E1450E552E7CFD9FF1200D9CF0C
:100B8000E6FFE1CFD9FF030EE126FB0EDB50DF6E5F
:100B9000F90EDB50E76E010EE7CFDBFF020EDB6ADA
:100BA000F80EDB5001E1F6D0010A01E0CBD1010ED5
:100BB000DB50000801E3EDD0DF041AE1FD0EDBCFCE
:100BC000E9FFDB2AFE0EDBCFEAFF01E3DB2AEFCFF2
:100BD0008DF0FD0EDBCFE9FFDB2AFE0EDBCFEAFF57
:100BE00001E3DB2AEFCF8EF00001010E8F6FCDD035
:100BF000020EDF5C1AE1FD0EDBCFE9FFDB2AFE0E01
:100C0000DBCFEAFF01E3DB2AEFCF90F0FD0EDBCF75
:100C1000E9FFDB2AFE0EDBCFEAFF01E3DB2AEFCFA1
:100C200091F00001010E926FB0D0030EDF5C34E34F
:100C3000DF500C0831E3FD0EDBCFE9FFDB2AFE0EAF
:100C4000DBCFEAFF01E3DB2AEF50E66E030EDF5C49
:100C5000E824EA6A930FE96E000EEA22E552E750B3
:100C6000EF6EFD0EDBCFE9FFDB2AFE0EDBCFEAFFE6
:100C700001E3DB2AEF50E66E030EDF5CE824010F90
:100C8000EA6A930FE96E000EEA22E552E750EF6E32
:100C90000001010EA76F79D00D0EDF5C3AE3DF5043
:100CA000110837E3FD0EDBCFE9FFDB2AFE0EDBCFB9
:100CB000EAFF01E3DB2AEF50E66E0D0EDF5CE8246D
:100CC000EA6AA80FE96E000EEA22E552E750EF6EDD
:100CD000FD0EDBCFE9FFDB2AFE0EDBCFEAFF01E3EF
:100CE000DB2AEF50E66E0D0EDF5CE824010FEA6AA6
:100CF000A80FE96E000EEA22E552E750EF6E0D0EE6
:100D0000DF5CEA6AB20FE96E000EEA22010EEF6EB6
:100D10003CD0120EDF5C39E3DF50160836E3FD0EDF
:100D2000DBCFE9FFDB2AFE0EDBCFEAFF01E3DB2AA4
:100D3000EF50E66E120EDF5CE824EA6AB70FE96E48
:100D4000000EEA22E552E750EF6EFD0EDBCFE9FF21
:100D5000DB2AFE0EDBCFEAFF01E3DB2AEF50E66E73
:100D6000120EDF5CE824010FEA6AB70FE96E000E8D
:100D7000EA22E552E750EF6E120EDF5CEA6AC10F1D
:100D8000E96E000EEA22010EEF6EDF2A010EDB068D
:100D90000ED7D8D0010EDB50000801E3D2D0DF041B
:100DA00017E1FD0EDBCFE9FFDB2AFE0EDBCFEAFF0A
:100DB00001E3DB2A8DC0EFFFFD0EDBCFE9FFDB2A6D
:100DC000FE0EDBCFEAFF01E3DB2A8EC0EFFFB5D0DA
:100DD000020EDF5C17E1FD0EDBCFE9FFDB2AFE0E22
:100DE000DBCFEAFF01E3DB2A90C0EFFFFD0EDBCF94
:100DF000E9FFDB2AFE0EDBCFEAFF01E3DB2A91C02D
:100E0000EFFF9BD0030EDF5C31E3DF500C082EE3D5
:100E1000030EDF5CE824EA6A930FE96E000EEA2213
:100E2000EF50E66EFD0EDBCFE9FFDB2AFE0EDBCFD7
:100E3000EAFF01E3DB2AE552E750EF6E030EDF5CC9
:100E4000E824010FEA6A930FE96E000EEA22EF50E0
:100E5000E66EFD0EDBCFE9FFDB2AFE0EDBCFEAFFFD
:100E600001E3DB2AE552E750EF6E67D00D0EDF5C41
:100E700031E3DF5011082EE30D0EDF5CE824EA6A4F
:100E8000A80FE96E000EEA22EF50E66EFD0EDBCFF2
:100E9000E9FFDB2AFE0EDBCFEAFF01E3DB2AE552A6
:100EA000E750EF6E0D0EDF5CE824010FEA6AA80F31
:100EB000E96E000EEA22EF50E66EFD0EDBCFE9FF91
:100EC000DB2AFE0EDBCFEAFF01E3DB2AE552E75027
:100ED000EF6E33D0120EDF5C30E3DF5016082DE3E7
:100EE000120EDF5CE824EA6AB70FE96E000EEA2210
:100EF000EF50E66EFD0EDBCFE9FFDB2AFE0EDBCF07
:100F0000EAFF01E3DB2AE552E750EF6E120EDF5CE9
:100F1000E824010FEA6AB70FE96E000EEA22EF50EB
:100F2000E66EFD0EDBCFE9FFDB2AFE0EDBCFEAFF2C
:100F300001E3DB2AE552E750EF6EDF2A010EDB0604
:100F400029D700D0020EDB50146E030EE15C03E2E1
:100F500000D0E16AE552E16E1450E552E7CFD9FFC7
:100F60001200D9CFE6FFE1CFD9FF010E00D0E55244
:100F7000E7CFD9FF1200D9CFE6FFE1CFD9FF010EAD
:100F800000D0E552E7CFD9FF1200D9CFE6FFE1CF7D
:100F9000D9FFE652DF6A050EDF5C01E31ED1DF50A8
:100FA000090DF3CFE9FFF4CFEAFF600EE926000E4A
:100FB000EA22080EE926000EEA22EF0410E0DF50D4
:100FC000090DF3CFE9FFF4CFEAFF600EE926000E2A
:100FD000EA22060EE926000EEA22EF6AFCD0DF5074
:100FE000090DF3CFE9FFF4CFEAFF600EE926000E0A
:100FF000EA22040EE926000EEA22EECF14F0EFCF2B
:1010000015F0DF50090DF3CFE9FFF4CFEAFF600ED2
:10101000E926000EEA22020EE926000EEA22EECFB1
:1010200016F0EFCF17F01450165C1550175825E244
:10103000DF50090DF3CFE9FFF4CFEAFF600EE92698
:10104000000EEA22040EE926000EEA22EECF18F086
:10105000EFCF19F0DF50090DF3CFE9FFF4CFEAFF2E
:10106000600EE926000EEA22EECF1AF0EFCF1BF059
:101070001A50185C1B50195811E3DF50090DF3CFBB
:10108000E9FFF4CFEAFF600EE926000EEA22060E21
:10109000E926000EEA22010EEF6E0FD0DF50090D97
:1010A000F3CFE9FFF4CFEAFF600EE926000EEA2253
:1010B000060EE926000EEA22EF6ADF50090DF3CF93
:1010C000E9FFF4CFEAFF600EE926000EEA22070EE0
:1010D000E926000EEA22EF5010E1DF50090DF3CFB0
:1010E000E9FFF4CFEAFF600EE926000EEA22060EC1
:1010F000E926000EEA22EF6A6ED0DF50090DF3CF29
:10110000E9FFF4CFEAFF600EE926000EEA22040EA2
:10111000E926000EEA22EECF14F0EFCF15F0DF50F3
:10112000090DF3CFE9FFF4CFEAFF600EE926000EC8
:10113000EA22020EE926000EEA22EECF16F0EFCFE9
:1011400017F01450165C1550175825E2DF50090DA2
:10115000F3CFE9FFF4CFEAFF600EE926000EEA22A2
:10116000040EE926000EEA22EECF18F0EFCF19F0B8
:10117000DF50090DF3CFE9FFF4CFEAFF600EE92657
:10118000000EEA22EECF1AF0EFCF1BF01A50185CD7
:101190001B50195811E3DF50090DF3CFE9FFF4CFCD
:1011A000EAFF600EE926000EEA22060EE926000E8E
:1011B000EA22010EEF6E0FD0DF50090DF3CFE9FFE9
:1011C000F4CFEAFF600EE926000EEA22060EE926B9
:1011D000000EEA22EF6ADF2ADED6E552E552E7CFBB
:1011E000D9FF1200D9CFE6FFE1CFD9FF020EE126E9
:1011F000010EDB6A0001C60502E1000E01D0010EFE
:10120000C66FDF6A050EDF5C01E39BD0DF50040A86
:1012100001E179D0070A5BE0010A3DE0030A1FE023
:10122000010A01E08CD0DF50090DF3CFE9FFF4CFC4
:10123000EAFF600EE926000EEA22060EE926000EFD
:10124000EA22EF0406E1DE52010EDD6E0001C65116
:1012500001D0000EE8B08880E8A0889070D0DF5000
:10126000090DF3CFE9FFF4CFEAFF600EE926000E87
:10127000EA22060EE926000EEA22EF0406E1DE521B
:10128000010EDD6E0001C65101D0000EE8B088826B
:10129000E8A0889254D0DF50090DF3CFE9FFF4CFD6
:1012A000EAFF600EE926000EEA22060EE926000E8D
:1012B000EA22EF0406E1DE52010EDD6E0001C651A6
:1012C00001D0000EE8B08884E8A0889438D0DF50C0
:1012D000090DF3CFE9FFF4CFEAFF600EE926000E17
:1012E000EA22060EE926000EEA22EF0406E1DE52AB
:1012F000010EDD6E0001C65101D0000EE8B08886F7
:10130000E8A088961CD0DF50090DF3CFE9FFF4CF99
:10131000EAFF600EE926000EEA22060EE926000E1C
:10132000EA22EF0406E1DE52010EDD6E0001C65135
:1013300001D0000EE8B08888E8A0889800D0DF2AA5
:1013400061D7010EDB0402E1010E01D0000EE8B00E
:10135000888AE8A0889A020EE15C02E2E16AE5521E
:0A136000E16EE552E7CFD9FF12005D
:06136A00D9CFE6FFE1CF40
:10137000D9FF040EE126020EDB6AFB0EDBCFE9FF8C
:10138000FC0EDBCFEAFF050EEE1801E1ED5051E156
:10139000010EE76EFD0EDBCFE9FFFE0EDBCFEAFFAD
:1013A000E750E926000EEA22EF50000EF350DE6E01
:1013B000DD6A020EE76EFD0EDBCFE9FFFE0EDBCF2E
:1013C000EAFFE750E926000EEA22EF50DF12DF2A9B
:1013D000010E01E3DB2AE66EE66EE66ADECFE6FF8B
:1013E000DDCFE6FF030EE76EFD0EDBCF14F0FE0E41
:1013F000DBCF15F0E7501426000E152214C0E6FFCF
:1014000015C0E6FFBFEC05F0166E070EE15E165044
:10141000E76E030EE7CFDBFFDB500AE0030EDBCF06
:10142000E6FF3CEC1CF0E552E76E020EE7CFDBFF77
:1014300005D0030EF36E020EF3CFDBFF020EDB507E
:10144000146E040EE15C03E200D0E16AE552E16E45
:101450001450E552E7CFD9FF1200D9CFE6FFE1CF14
:10146000D9FF070EE126050EDB6AFB0EDBCFE9FF95
:10147000FC0EDBCFEAFFEECF14F0EFCF15F0060E37
:10148000145C000E155801E2D7D0010EE76EFD0E78
:10149000DBCFE9FFFE0EDBCFEAFFE750E926000EC7
:1014A000EA22EF50DE6EDD6AD9CFE9FFDACFEAFF3C
:1014B000EE50ED6EEF6A020EE76EFD0EDBCFE9FF38
:1014C000FE0EDBCFEAFFE750E926000EEA22EF50DE
:1014D000DF12DF2A010E01E3DB2A030EE76EFD0EA9
:1014E000DBCFE9FFFE0EDBCFEAFFE750E926000E77
:1014F000EA22EF50E66ED950020FE96EDACFEAFF2A
:10150000E552E750EE6EED6AD950020FE96EDACF80
:10151000EAFFEE50ED6EEF6A040EE76EFD0EDBCFD4
:10152000E9FFFE0EDBCFEAFFE750E926000EEA22D4
:10153000EF50146E156AD950020FE96EDACFEAFF48
:101540001450EE121550ED12050EE76EFD0EDBCFB6
:10155000E9FFFE0EDBCFEAFFE750E926000EEA22A4
:10156000040EEFCFDBFF020EDBCF14F0030EDBCF58
:1015700015F0010E145C000E155858E3D950020FF7
:10158000E96EDACFEAFF780ED880EE54000EED5403
:101590004DE3020E086E096ADBCF0DF0030EDBCFC0
:1015A0000EF0ECEC25F00650F36E040EDB50F35C0D
:1015B0003DE1010EE66E020EDBCFE6FF030EDBCF50
:1015C000E6FFDECFE6FFDDCFE6FF060EE76EFD0E9F
:1015D000DBCF14F0FE0EDBCF15F0E7501426000E23
:1015E000152214C0E6FF15C0E6FFBFEC05F0166E2D
:1015F000070EE15E1650E76E060EE7CFDBFFDB500D
:101600000BE0060EDBCFE6FF3CEC1CF0E552E76E8C
:10161000050EE7CFDBFF09D0FB0EDBCFE9FFFC0EA9
:10162000DBCFEAFF050EEE6EED6A05D0030EF36E1A
:10163000050EF3CFDBFF05D0030EF36E050EF3CFDF
:10164000DBFFDB50146E070EE15C03E200D0E16AC1
:10165000E552E16E1450E552E7CFD9FF1200D9CF21
:10166000E6FFE1CFD9FF080EE126060EDB6AFB0E8E
:10167000DBCFE9FFFC0EDBCFEAFF050EEE1801E140
:10168000ED5001E004D1010EE76EFD0EDBCFE9FF66
:10169000FE0EDBCFEAFFE750E926000EEA22EF500C
:1016A000DE6EDD6AD9CFE9FFDACFEAFFEE50ED6EEC
:1016B000EF6A020EE76EFD0EDBCFE9FFFE0EDBCF19
:1016C000EAFFE750E926000EEA22EF50DF12DF2A98
:1016D000010E01E3DB2A030EE76EFD0EDBCFE9FF0F
:1016E000FE0EDBCFEAFFE750E926000EEA22EF50BC
:1016F000E66ED950020FE96EDACFEAFFE552E75005
:10170000EE6EED6AD950020FE96EDACFEAFFEE50C5
:10171000ED6EEF6A040EE76EFD0EDBCFE9FFFE0E05
:10172000DBCFEAFFE750E926000EEA22EF50E66E33
:10173000D950020FE96EDACFEAFFE552E750EE6EBC
:10174000ED6A020EDBCF14F0030EDBCF15F0010EB5
:10175000145C000E155801E294D0D950020FE96EC6
:10176000DACFEAFF7D0ED880EE54000EED5401E290
:1017700088D0FD0EDBCF08F0FE0EDBCF09F0040EA3
:1017800008C0DBFF050E09C0DBFFFB0EDBCFE9FF66
:10179000FC0EDBCFEAFFEE6AED6A040EDBCFE9FF59
:1017A000DB2A050EDBCFEAFF01E3DB2A030EEF6E37
:1017B000FB0EDBCFE9FFFC0EDBCFEAFFEE2A000ECB
:1017C000ED22020E086E096ADBCF0DF0030EDBCFAF
:1017D0000EF0ECEC25F00650E66E040EDBCFE9FFD0
:1017E000DB2A050EDBCFEAFF01E3DB2AE552E750F7
:1017F000EF6EFB0EDBCFE9FFFC0EDBCFEAFFEE2A3C
:10180000000EED22E66A020EDBCFE6FF030EDBCF11
:10181000E6FFDECFE6FFDDCFE6FF040EDBCFE6FF1F
:10182000050EDBCFE6FFBFEC05F0146E070EE15EA0
:101830001450E76E070EE7CFDBFFDB500BE0070E1F
:10184000DBCFE6FF3CEC1CF0E552E76E060EE7CF7F
:10185000DBFF16D0020EDBCF14F0030EDBCF15F04A
:10186000010ED89014361536E806FBE1FB0EDBCFEF
:10187000E9FFFC0EDBCFEAFF1450EE261550ED22F7
:1018800005D0030EF36E060EF3CFDBFF05D0030E7B
:10189000F36E060EF3CFDBFF060EDB50146E080E60
:1018A000E15C03E200D0E16AE552E16E1450E552DA
:1018B000E7CFD9FF1200D9CFE6FFE1CFD9FF0D0E58
:1018C000E1260B0EDB6AFB0EDBCFE9FFFC0EDBCF64
:1018D000EAFFEECF14F0EFCF15F00A0E145C000E05
:1018E000155801E2D0D1010EE76EFD0EDBCFE9FF06
:1018F000FE0EDBCFEAFFE750E926000EEA22EF50AA
:10190000000EF350DE6EDD6A020EE76EFD0EDBCFD9
:10191000E9FFFE0EDBCFEAFFE750E926000EEA22E0
:10192000EF50DF12DF2A010E01E3DB2A030EE76E20
:10193000FD0EDBCFE9FFFE0EDBCFEAFFE750E92625
:10194000000EEA22EF50000EF350E66ED950020F5F
:10195000E96EDACFEAFFE552E750EE6EED6A040E6B
:10196000E76EFD0EDBCFE9FFFE0EDBCFEAFFE750AF
:10197000E926000EEA22EF50146E156AD950020FC4
:10198000E96EDACFEAFF1450EE121550ED12050E93
:10199000E76EFD0EDBCFE9FFFE0EDBCFEAFFE7507F
:1019A000E926000EEA22EF50000EF350E66ED95001
:1019B000040FE96EDACFEAFFE552E750EE6EED6A0A
:1019C000060EE76EFD0EDBCFE9FFFE0EDBCFEAFF72
:1019D000E750E926000EEA22EF50146E156AD9503E
:1019E000040FE96EDACFEAFF1450EE121550ED1233
:1019F000040EDB2A050E01E3DB2A070EE76EFD0E5F
:101A0000DBCFE9FFFE0EDBCFEAFFE750E926000E51
:101A1000EA22EF50000EF350E66ED950060FE96E41
:101A2000DACFEAFFE552E750EE6EED6A080EE76E98
:101A3000FD0EDBCFE9FFFE0EDBCFEAFFE750E92624
:101A4000000EEA22EF50146E156AD950060FE96EA7
:101A5000DACFEAFF1450EE121550ED12090EE76EC0
:101A6000FD0EDBCFE9FFFE0EDBCFEAFFE750E926F4
:101A7000000EEA22080EEFCFDBFF020EDBCF14F0E0
:101A8000030EDBCF15F0010E145C000E155801E2B9
:101A9000F5D0D950020FE96EDACFEAFF7D0ED8807B
:101AA000EE54000EED5401E2E9D0060EDBCF16F045
:101AB000070EDBCF17F0010E165C000E175801E27F
:101AC000DDD0D950060FE96EDACFEAFF790ED88063
:101AD000EE54000EED5401E2D1D0020E086E096AF8
:101AE000060EDBCF0DF0070EDBCF0EF0ECEC25F091
:101AF00006C018F007C019F0080EDB501A6E1B6AFA
:101B00001A50181802E11B50191801E0B7D0010E45
:101B1000E66E060EDBCFE6FF070EDBCFE6FF040E18
:101B2000DBCFE6FF050EDBCFE6FF0A0EE76EFD0E0C
:101B3000DBCF14F0FE0EDBCF15F0E7501426000EBD
:101B4000152214C0E6FF15C0E6FFBFEC05F0166EC7
:101B5000070EE15E1650E76E0C0EE7CFDBFFDB50A1
:101B600001E07ED0FD0EDBCF08F0FE0EDBCF09F0EA
:101B7000090E08C0DBFF0A0E09C0DBFFFB0EDBCF3E
:101B8000E9FFFC0EDBCFEAFFEE6AED6A090EDBCF60
:101B9000E9FFDB2A0A0EDBCFEAFF01E3DB2A170E9F
:101BA000EF6EFB0EDBCFE9FFFC0EDBCFEAFFEE2A88
:101BB000000EED22020E086E096ADBCF0DF0030E57
:101BC000DBCF0EF0ECEC25F00650E66E090EDBCF15
:101BD000E9FFDB2A0A0EDBCFEAFF01E3DB2AE5524D
:101BE000E750EF6EFB0EDBCFE9FFFC0EDBCFEAFF29
:101BF000EE2A000EED22E66A020EDBCFE6FF030EB0
:101C0000DBCFE6FFDECFE6FFDDCFE6FF090EDBCF61
:101C1000E6FF0A0EDBCFE6FFBFEC05F0146E070E01
:101C2000E15E1450E76E0C0EE7CFDBFFDB5018E1EE
:101C3000020E086E096ADBCF0DF0030EDBCF0EF04B
:101C4000ECEC25F006C014F007C015F0FB0EDBCF5E
:101C5000E9FFFC0EDBCFEAFF1450EE261550ED2213
:101C60000C0EDB500AE00C0EDBCFE6FF3CEC1CF068
:101C7000E552E76E0B0EE7CFDBFF05D0030EF36EE8
:101C80000B0EF3CFDBFF0B0EDB50146E0D0EE15C81
:101C900003E200D0E16AE552E16E1450E552E7CF6D
:041CA000D9FF120056
:0C1CA400D9CFE6FFE1CFD9FF050EE12605
:101CB000FE0EDB50180802E2000E8CD0FE0EDBCFC9
:101CC00031F2DF6A02013151DF5C0AE2DF50EA6A79
:101CD000190FE96E020EEA225FCFEFFFDF2AF2D77B
:101CE000010E386F020E396FDF6A0B0EDF5C48E2BF
:101CF000010EDB6AFE0EDB50F36E010EDBCFF4FF4C
:101D0000F350F45C15E2DF50EA6A550FE96E0F0EEE
:101D1000EA22EF50E66E010EDB50EA6A010FE96E2F
:101D2000020EEA22E552E750EF6E010EDB2AE2D7FF
:101D3000020EDB6A640EF36E020EDBCFF4FFF3508B
:101D4000F45C1CE253D8030EF36EF3CFDBFF040EFA
:101D5000DB6A030EDBCF14F0DB06040EDBCF15F0DD
:101D600001E2DB061450151006E0020EE66EAAEC46
:101D700026F0E552EED7020EDB2ADCD7DF2AB5D7F4
:101D8000DF6A010EDB6AFE0EDB50F36E010EDBCF65
:101D9000F4FFF350F45C1AE20A0EDF5C01E3DF6A41
:101DA000DF50EA6A550FE96E0F0EEA22EF50E66E39
:101DB000010EDB50EA6A010FE96E020EEA22E552DB
:101DC000E750EF6E010EDB2ADF2ADDD70201326B0E
:101DD000010E00D0146E050EE15C02E2E16AE552EC
:101DE000E16E1450E552E7CFD9FF12000201005115
:101DF000010A28E0010A01E063D0100E3225EA6AE8
:101E00003825E96E3951EA22EF50E66E080E322588
:101E1000EA6A3825E96E3951EA22EF50E66E32510E
:101E2000EA6A3825E96E3951EA22EF50E66EB0D9F8
:101E3000E552E552E5520201322B080E325D01E314
:101E4000326B3ED0100E3225EA6A3825E96E3951E0
:101E5000EA22EF50E66E080E3225EA6A3825E96E6E
:101E60003951EA22EF50E66E3251EA6A3825E96EBE
:101E70003951EA22EF50E66E8BD9E552E552E55230
:101E80000201322B080E325D01E3326B332B000E60
:101E900034233551335D3651345911E3336B346B90
:101EA000010E381902E1020E391905E1190E386FD9
:101EB000020E396F04D0010E386F020E396F00D058
:101EC0001200D9CFE6FFE1CFD9FFE652DF6ADF6A21
:101ED00002013151DF5C16E2DF50E76EFD0EDBCF11
:101EE000E9FFFE0EDBCFEAFFE750E926000EEA220B
:101EF000EF50E66E73D9E552000902E1000E41D0C1
:101F0000DF2AE6D7DF6A3151DF5C38E2DF50E76E67
:101F1000FD0EDBCFE9FFFE0EDBCFEAFFE750E9263F
:101F2000000EEA22EF50200809E1DF50EA6A010FB3
:101F3000E96E020EEA225FCFEFFF1ED0DF50E76EA0
:101F4000FD0EDBCFE9FFFE0EDBCFEAFFE750E9260F
:101F5000000EEA22EF50D00FEA6A550FE96E0F0E1D
:101F6000EA22EF50E66EDF50EA6A010FE96E020ED8
:101F7000EA22E552E750EF6EDF2AC5D7326B010E39
:101F800000D0E552E552E7CFD9FF1200D9CFE6FFE6
:101F9000E1CFD9FF020EE126DF6ADF6AFB0EDB50DC
:101FA000DF5C16E2DF50E76EFD0EDBCFE9FFFE0ED1
:101FB000DBCFEAFFE750E926000EEA22EF50E66E9B
:101FC0000DD9E552000902E1000E50D0DF2AE6D714
:101FD000FC0EDB50DF6E010EDB6AFB0EDBCFE6FF93
:101FE000FC0EDB50E552E724DF5C3CE2010EDB50E7
:101FF000E76EFD0EDBCFE9FFFE0EDBCFEAFFE75019
:10200000E926000EEA22EF50200809E1DF50EA6AD3
:10201000010FE96E020EEA225FCFEFFF1FD0010E23
:10202000DB50E76EFD0EDBCFE9FFFE0EDBCFEAFFF4
:10203000E750E926000EEA22EF50D00FEA6A550F6A
:10204000E96E0F0EEA22EF50E66EDF50EA6A010FEA
:10205000E96E020EEA22E552E750EF6EDF2A010E2A
:10206000DB2ABBD70201326B010E00D0146E020EC8
:10207000E15C02E2E16AE552E16E1450E552E7CF1D
:10208000D9FF1200D9CFE6FFE1CFD9FFE652DF6AD0
:10209000DF6A02013151DF5C19E2DF50E76EFD0EAD
:1020A000DBCFE9FFFE0EDBCFEAFFE750E926000EAB
:1020B000EA22EF50E66EDF50EA6A010FE96E020E87
:1020C000EA22E552E750EF6EDF2AE3D7326BE552A2
:1020D000E552E7CFD9FF1200D9CFE6FFE1CFD9FF14
:1020E000E652DF6AFE0EDBCF14F002013151D880D8
:1020F000145402E2000E2DD0FD0EDBCFE6FF6ED8A9
:10210000E552000902E1000E24D0FD0EDB5020084C
:102110000AE1FE0EDB50EA6A010FE96E020EEA22C6
:102120005FCFEFFF14D0FD0EDB50D00FEA6A550FE2
:10213000E96E0F0EEA22EF50E66EFE0EDB50EA6A01
:10214000010FE96E020EEA22E552E750EF6E010E32
:1021500000D0E552E552E7CFD9FF1200D9CFE6FF14
:10216000E1CFD9FFE652DF6A02013151DF5C0AE2BA
:10217000DF50EA6A010FE96E020EEA225FCFEFFF3D
:10218000DF2AF2D7326BE552E552E7CFD9FF1200D2
:10219000D9CFE6FFE1CFD9FFE652010EDF6E816AAB
:1021A000846A876AFE0EDB50806EFD0EDB50836E04
:1021B000FC0EDB50856E02013251070B04E0DF4656
:1021C000DF90E806FCE1DF50816EDF50846EDF5067
:1021D000876EE552E552E7CFD9FF1200D9CFE6FF6F
:1021E000E1CFD9FFE652DF6AFE0EDB50200803E1A3
:1021F000010EDF6E0ED0300EF36EFE0EDBCFF4FF5D
:10220000F350F45C06E3FE0EDB50390802E3010EE6
:10221000DF6EDF5000D0E552E552E7CFD9FF120064
:10222000D9CFE6FFE1CFD9FF020EE126FE0EDB504B
:10223000DF6EFE0EDBCFE6FFFD0EDB50E552E7243E
:10224000DF5C17E2DF50EA6A010FE96E020EEA2254
:10225000010EEFCFDBFFDB508009E66EDF50EA6A4C
:10226000010FE96E020EEA22E552E750EF6EDF2A17
:10227000E0D7020EE15C02E2E16AE552E16EE5526E
:10228000E7CFD9FF1200D9CFE6FFE1CFD9FFFD0E8E
:10229000DBCF35F2FE0EDBCF36F2010E0F0B020163
:1022A00005E0D89036333533E806FBE10201336BA5
:1022B000346B010E006FE552E7CFD9FF1200020127
:1022C000010E386F020E396F006B1200D9CFE6FF96
:1022D000E1CFD9FFE652FD0EDBCF35F2FE0EDBCFAC
:1022E00036F2010E0F0B020105E0D890363335337C
:1022F000E806FBE10201336B346BFC0EDBCF37F2F7
:10230000DF6A3151DF5C16E23751DF5C11E0DF50EC
:10231000EA6A010FE96E020EEA22EF50E66EDF5024
:10232000EA6A190FE96E020EEA22E552E750EF6EF3
:10233000DF2AE7D73751EA6A190FE96E020EEA225F
:10234000EF6A010E006FE552E552E7CFD9FF1200A8
:10235000D9CFE6FFE1CFD9FFE652FD0EDBCF35F254
:10236000FE0EDBCF36F2010E0F0B020105E0D89016
:1023700036333533E806FBE10201336B346BDF6A39
:102380003151DF5C13E2DF50EA6A010FE96E020EA1
:10239000EA22EF50E66EDF50EA6A190FE96E020E8C
:1023A000EA22E552E750EF6EDF2AEAD7FC0EDB5057
:1023B000DF6EFB0EDBCFE6FFFC0EDB50E552E724C1
:1023C000DF5C09E2DF50EA6A190FE96E020EEA22C9
:1023D000EF6ADF2AEED70201010E006FE552E552E7
:0623E000E7CFD9FF120057
:0A23E600D9CFE6FFE1CFD9FF090EC1
:1023F000E126070EDB6AFB0EDBCFE9FFFC0EDBCF2D
:10240000EAFF050EEE1801E1ED5001E011D1010ED9
:10241000E76EFD0EDBCFE9FFFE0EDBCFEAFFE750F4
:10242000E926000EEA22EF50000EF350DE6EDD6A60
:10243000020EE76EFD0EDBCFE9FFFE0EDBCFEAFFFB
:10244000E750E926000EEA22EF50DF12DF2A010EE4
:1024500001E3DB2A030EE76EFD0EDBCFE9FFFE0E84
:10246000DBCFEAFFE750E926000EEA22EF50000E2C
:10247000F350E66ED950020FE96EDACFEAFFE5526B
:10248000E750EE6EED6A040EE76EFD0EDBCFE9FF5E
:10249000FE0EDBCFEAFFE750E926000EEA22EF50FE
:1024A000146E156AD950020FE96EDACFEAFF1450A4
:1024B000EE121550ED12020EDBCF14F0030EDBCF3F
:1024C00015F0010E145C000E155801E2ABD0020E9F
:1024D000DBCF16F0030EDBCF17F0D00E165C070E25
:1024E000175801E39FD0FD0EDBCF08F0FE0EDBCFC7
:1024F00009F0050E08C0DBFF060E09C0DBFFFB0E6E
:10250000DBCFE9FFFC0EDBCFEAFFEE6AED6A050EDA
:10251000DBCFE9FFDB2A060EDBCFEAFF01E3DB2A94
:10252000010EEF6EFB0EDBCFE9FFFC0EDBCFEAFF07
:10253000EE2A000EED22020EDB50070B15E0020E14
:10254000DBCF14F0030EDBCF15F00F0B05E0D890B6
:1025500015321432E806FBE1010E1426000E152296
:10256000040E14C0DBFF12D0080E146E156A020EA2
:10257000DBCF08F0030EDBCF09F014C00DF015C05F
:102580000EF094EC26F0040E08C0DBFF050EDBCF46
:10259000E9FFDB2A060EDBCFEAFF01E3DB2A040EAC
:1025A000DBCFEFFFFB0EDBCFE9FFFC0EDBCFEAFF5B
:1025B000EE2A000EED22E66A020EDBCFE6FF030EE6
:1025C000DBCFE6FFDECFE6FFDDCFE6FF050EDBCF9C
:1025D000E6FF060EDBCFE6FFB1EC07F0146E070E48
:1025E000E15E1450E76E080EE7CFDBFFDB500BE037
:1025F000080EDBCFE6FF3CEC1CF0E552E76E070E61
:10260000E7CFDBFF0ED0040EDB50146E156AFB0E15
:10261000DBCFE9FFFC0EDBCFEAFF1450EE261550AE
:10262000ED2205D0030EF36E070EF3CFDBFF05D0CE
:10263000030EF36E070EF3CFDBFF070EDB50146EB5
:10264000090EE15C03E200D0E16AE552E16E14504C
:10265000E552E7CFD9FF1200D9CFE6FFE1CFD9FF8E
:10266000060EE126040EDB6AFB0EDBCFE9FFFC0E53
:10267000DBCFEAFF050EEE1801E1ED5001E091D04D
:10268000010EE76EFD0EDBCFE9FFFE0EDBCFEAFFAA
:10269000E750E926000EEA22EF50000EF350DE6EFE
:1026A000DD6A020EE76EFD0EDBCFE9FFFE0EDBCF2B
:1026B000EAFFE750E926000EEA22EF50DF12DF2A98
:1026C000010E01E3DB2A040EE76EFD0EDBCFE9FF0E
:1026D000FE0EDBCFEAFFE750E926000EEA22EF50BC
:1026E0005AE1030EE76EFD0EDBCFE9FFFE0EDBCFF6
:1026F000EAFFE750E926000EEA22EF50FF080EE05D
:10270000030EE76EFD0EDBCFE9FFFE0EDBCFEAFF27
:10271000E750E926000EEA22EF503DE1030EDB6AA6
:10272000E76EFD0EDBCFE9FFFE0EDBCFEAFFE750E1
:10273000E926000EEA22EF50FF0806E1010EF36ED3
:10274000020EF3CFDBFF02D0020EDB6A010EE66E53
:10275000E66EE66ADECFE6FFDDCFE6FFD950020F78
:10276000E66E000EDA20E66EB1EC07F0146E070E8E
:10277000E15E1450E76E050EE7CFDBFFDB500AE0A9
:10278000050EDBCFE6FF3CEC1CF0E552E76E040ED5
:10279000E7CFDBFF05D0030EF36E040EF3CFDBFFB4
:1027A00005D0030EF36E040EF3CFDBFF040EDB50F7
:1027B000146E060EE15C03E200D0E16AE552E16EC0
:1027C0001450E552E7CFD9FF1200D9CFE6FFE1CF91
:1027D000D9FF080EE126060EDB6AFB0EDBCFE9FF10
:1027E000FC0EDBCFEAFF050ED880EE54000EED5450
:1027F00001E3EED0010EE76EFD0EDBCFE9FFFE0E2A
:10280000DBCFEAFFE750E926000EEA22EF50000E88
:10281000F350DE6EDD6A020EE76EFD0EDBCFE9FFE0
:10282000FE0EDBCFEAFFE750E926000EEA22EF506A
:10283000DF12DF2A010E01E3DB2A030EE76EFD0E35
:10284000DBCFE9FFFE0EDBCFEAFFE750E926000E03
:10285000EA22EF50000EF350E66ED950020FE96EF7
:10286000DACFEAFFE552E750EE6EED6A040EE76E4E
:10287000FD0EDBCFE9FFFE0EDBCFEAFFE750E926D6
:10288000000EEA22EF50146E156AD950020FE96E5D
:10289000DACFEAFF1450EE121550ED12050EE76E76
:1028A000FD0EDBCFE9FFFE0EDBCFEAFFE750E926A6
:1028B000000EEA22040EEFCFDBFF020EDB50070B07
:1028C00015E0020EDBCF14F0030EDBCF15F00F0B7B
:1028D00005E0D89015321432E806FBE1010E14260B
:1028E000000E1522050E14C0DBFF12D0080E146E68
:1028F000156A020EDBCF08F0030EDBCF09F014C01F
:102900000DF015C00EF094EC26F0050E08C0DBFFAC
:10291000020EDBCF14F0030EDBCF15F0010E145CBA
:10292000000E15584FE3D950020FE96EDACFEAFFD7
:10293000B00ED880EE54070EED5444E3040EDB5085
:10294000F36E050EDB50F35C3DE1010EE66E020E08
:10295000DBCFE6FF030EDBCFE6FFDECFE6FFDDCF0A
:10296000E6FF060EE76EFD0EDBCF14F0FE0EDBCFAA
:1029700015F0E7501426000E152214C0E6FF15C00E
:10298000E6FFB1EC07F0166E070EE15E1650E76E3B
:10299000070EE7CFDBFFDB500BE0070EDBCFE6FFD8
:1029A0003CEC1CF0E552E76E060EE7CFDBFF09D0EA
:1029B000FB0EDBCFE9FFFC0EDBCFEAFF050EEE6E70
:1029C000ED6A05D0030EF36E060EF3CFDBFF05D0E4
:1029D000030EF36E060EF3CFDBFF060EDB50146E14
:1029E000080EE15C03E200D0E16AE552E16E1450AA
:0829F000E552E7CFD9FF120008
:0829F800D9CFE6FFE1CFD9FFC2
:102A0000E652DF6AFD0EDB5013E0010EF36EFD0EA1
:102A1000DBCFF4FFF350F45C0BE3FD0EDB50146EE0
:102A2000156A153404E21450F708000E155403E239
:102A3000020EDF6E5DD0FD0EDBCFC7F0FE0EDB5069
:102A400001E045D00001420ECC6F310ECD6FCE6B50
:102A50005E0ECF6F310ED06FD16B540EC96F320E38
:102A6000CA6FCB6B740ED26F310ED36FD46BD56B34
:102A7000D66BD76B640ED86F330ED96FDA6B320E0C
:102A8000DB6F340EDC6FDD6BC00EDE6F340EDF6F7C
:102A9000E06BF70EDBCFE6FFD950F80FE96EFF0EC3
:102AA000DA20EA6EEECFE6FFEECFE6FFEECFE6FFEE
:102AB000EFCFE6FFFC0EDBCFE6FFC7C0E6FFFFEC83
:102AC00017F0146E070EE15E1450DF6E02D0020E96
:102AD000DF6EDF500DE102EC25F0000903E1030E8B
:102AE000DF6E06D0FE0EDBCFC8F00F01010E006FC7
:102AF000DF5000D0E552E552E7CFD9FF1200D9CF21
:102B0000E6FFE1CFD9FF030EE126146AFE0EDB508B
:102B1000145C01E3ECD0FE0EDB507F0801E2E7D04D
:102B2000F29EFB0EDBCF14F0FC0EDBCF15F0FD0E9A
:102B3000DBCF16F014501510161001E18BD0DE6AB1
:102B4000DD6ADECF14F0DDCF15F0D890155004E625
:102B5000100E145C000E15586CE2DECFE9FFDDCFDD
:102B6000EAFFD890E936EA36D890E936EA36010E1F
:102B7000E9260F0EEA22EECF14F0EECF15F0EECFDD
:102B800016F0EFCF17F0000115501610171022E0C5
:102B9000FB0EDBCF18F0FC0EDBCF19F0FD0EDBCF08
:102BA0001AF0DECFE9FFDDCFEAFFD890E936EA364A
:102BB000D890E936EA36010EE9260F0EEA22EE52E7
:102BC000EE50181806E1EE50191803E1EE501A18ED
:102BD00000E12AE1DECFE9FFDDCFEAFFD890E93658
:102BE000EA36D890E936EA36010EE9260F0EEA22D7
:102BF000FE0EDBCFEFFFDECFE9FFDDCFEAFFD8909F
:102C0000E936EA36D890E936EA36010EE9260F0EA3
:102C1000EA22EE52FB0EDBCFEEFFFC0EDBCFEEFF27
:102C2000FD0EDBCFEEFF05D0DF2A010E01E3DB2A2C
:102C300088D7D9CFE9FFDACFEAFF100EEE1801E10D
:102C4000ED5002E0000E01D0040EE76E020EE7CF59
:102C5000DBFF4BD0DE6ADD6ADECF14F0DDCF15F08E
:102C6000D890155004E6100E145C000E15583BE287
:102C7000DECFE9FFDDCFEAFFD890E936EA36D8901B
:102C8000E936EA36010EE9260F0EEA22EFCF14F0FC
:102C9000FE0EDB50145C22E1DECFE9FFDDCFEAFF60
:102CA000D890E936EA36D890E936EA36010EE926B8
:102CB0000F0EEA22EF6ADECFE9FFDDCFEAFFD89000
:102CC000E936EA36D890E936EA36010EE9260F0EE3
:102CD000EA22EE52EE6AEE6AEE6A05D0DF2A010EB3
:102CE00001E3DB2AB9D7020EDB6AF28E04D0020EB2
:102CF000F36EF3CFDBFFDB50146E030EE15C03E2F7
:102D000000D0E16AE552E16E1450E552E7CFD9FFF9
:102D10001200D9CFE6FFE1CFD9FFE652DF6A0F01FB
:102D200000050FE10001D551D611D71109E007D0F8
:102D3000D7C0FBFFD6C0FAFF0001D551F96EF8DF0E
:102D400002D0060EDF6EDF5000D0E552E552E7CF2D
:102D5000D9FF1200D9CFE6FFE1CFD9FFE652DF6AF3
:102D60000F0100050CE107D0CEC0FBFFCDC0FAFF7C
:102D70000001CC51F96EF8DF0F01006B02D0060E96
:102D8000DF6EDF5000D0E552E552E7CFD9FF1200E9
:102D9000D9CFE6FFE1CFD9FFE6520F0100510EE196
:102DA00007D0D1C0FBFFD0C0FAFF0001CF51F96EB0
:102DB000F8DF0F01010E006FDF6A06D0000502E1A7
:102DC000DF6A02D0060EDF6EDF5000D0E552E5521A
:102DD000E7CFD9FF1200D9CFE6FFE1CFD9FF040E2C
:102DE000E126020EDB6A0F01005102E0060EFBD065
:102DF000D950030FE66E000EDA20E66E17EC25F0D0
:102E0000E552E552010801E0ECD0030EDB50030A65
:102E100001E1E6D0010A31E0030A04E0010A01E021
:102E2000E0D0DFD0EB0EE66E000EE66EE70EE66E4B
:102E3000000EE66EE90EE66E000EE66E07D0D4C018
:102E4000FBFFD3C0FAFF0001D251F96EF8DF146E18
:102E5000060EE15E1450E76E020EE7CFDBFFDB509B
:102E60000BE10001C751E95D02E0E95105E1020E05
:102E7000E66E07EC25F0E552B4D0E7C0E9FFE8C004
:102E8000EAFFEFCFEAF00001010EED6FDE6ADD6AC6
:102E9000DECF14F0DDCF15F0D890155004E6100EFB
:102EA000145C000E155857E2DECFE9FFDDCFEAFFD4
:102EB000D890E936EA36D890E936EA36010EE926A6
:102EC0000F0EEA22EF5002E146D040D0DECFE9FFFC
:102ED000DDCFEAFFD890E936EA36D890E936EA360F
:102EE000010EE9260F0EEA22EF500001EA5D2EE105
:102EF000DECFE9FFDDCFEAFFD890E936EA36D89099
:102F0000E936EA36010EE9260F0EEA22EECF14F07A
:102F1000EECF15F0EECF16F0EFCF17F0EB0EE66E1A
:102F2000000EE66EE7C0E6FFE8C0E6FF07D017C078
:102F3000FBFF16C0FAFF00011550F96EF8DFE552ED
:102F4000E552E552E5520001ED6F05D0DF2A010E92
:102F500001E3DB2A9DD70001E95141E0ED5124E076
:102F6000EB6BEC6B800EEA11E66EEBC014F0ECC07C
:102F700015F0EB2B000EEC23E7511424E96EE85119
:102F80001520EA6EE552E750EF6EEBC014F0ECC08E
:102F900015F0EB2B000EEC23E7511424E96EE851F9
:102FA0001520EA6EEDC0EFFFEBC0E6FFECC0E6FFD8
:102FB000E7C0E6FFE8C0E6FFC7C0E6FF07D0CBC02A
:102FC000FBFFCAC0FAFF0001C951F96EF8DF146EA9
:102FD000050EE15E1450E76E020EE7CFDBFF01D075
:102FE00000D0000E00D0146E040EE15C02E2E16A33
:0E2FF000E552E16E1450E552E7CFD9FF120012
:022FFE00D9CF29
:10300000E6FFE1CFD9FF050EE126DF6A9D9AF80EB3
:10301000DBCFE6FF080EE66ED950F90FE96EFF0E22
:10302000DA20EA6EEECFE6FFEECFE6FFEECFE6FF68
:10303000EFCFE6FFFD0EDBCFE6FF76EC1CF0146E63
:10304000070EE15E1450010803E0030EDF6E6AD044
:10305000D950F90FE96EFF0EDA20EA6ED880800EA3
:10306000EE54250EEE54000EEE54000EEE540FE218
:10307000A30EF36E010EF3CFDBFFBB0EF36E020E59
:10308000F3CFDBFF030EDB6A040EDB6A3DD0D950C1
:10309000F90FE96EFF0EDA20EA6E600EEE1806E117
:1030A000090EEE1803E1EE5001E1EE500FE1CF0EF4
:1030B000F36E010EF3CFDBFF710EF36E020EF3CF52
:1030C000DBFF030EDB6A040EDB6A1ED0D950F90F5A
:1030D000E96EFF0EDA20EA6E800EEE1806E1250E8C
:1030E000EE1803E1EE5001E1EE500EE1E70EF36E53
:1030F000010EF3CFDBFFB80EF36E020EF3CFDBFF52
:10310000030EDB6A040EDB6A010EDBCFE6FF020E64
:10311000DBCFE6FF5AEC23F0E552E552010802E06E
:10312000030EDF6E9D8ADF50146E050EE15C03E234
:1031300000D0E16AE552E16E1450E552E7CFD9FFC5
:1031400012009D9A02015D6BE66A010EE66E5BEC71
:103150001CF0E552E55271EC23F09D8A12009D9A15
:10316000E66AE66A5BEC1CF0E552E5527CEC23F083
:103170009D8A1200D9CFE6FFE1CFD9FF040EE126E8
:10318000DF6A010EDB6A9D9A0101F00EF45D000E0C
:10319000F55902E3050E52D0040EF45D000EF55908
:1031A00046E3F4C1E6FFF5C1E6FF000EE66E010E50
:1031B000E66EDCEC22F0E552E552E552E552020EF5
:1031C000F3CFDBFF030EF4CFDBFFD950020FE96E24
:1031D000DACFEAFFEE50ED1029E1FD0EDBCFE9FF7B
:1031E000FE0EDBCFEAFF00C1EFFFF4C114F0F5C122
:1031F00015F01406000E155A020E145E000E155A34
:10320000F90EDBCFE9FFFA0EDBCFEAFF14C0EEFFC9
:1032100015C0EDFFFB0EDBCFE9FFFC0EDBCFEAFFB5
:10322000010EEE6E010EED6E010EDF6E03D0DE526A
:10323000050EDD6E9D8A010EDB5000D0146E040E6B
:10324000E15C02E2E16AE552E16E1450E552E7CF3B
:10325000D9FF1200D9CFE6FFE1CFD9FF030EE12657
:10326000DF6A9D9A02015D056CE1FC0EDBCFF0F197
:10327000FD0EDBCFF1F10101010EF05F000EF15BFD
:10328000010EF26FF36BFE0EDB50F0C1E9FFF1C1EE
:10329000EAFFEF6EFA0EDBCF08F0FB0EDBCF09F092
:1032A0000850F2270950F323F2C1E6FFF3C1E6FF0D
:1032B000F0C1E6FFF1C1E6FFDCEC22F0E552E55299
:1032C000E552E552DE52F3CFDEFFF4CFDDFFDD52F3
:1032D000FF0EE76E010EDBCF14F0020EDBCF15F010
:1032E000E7501416156A0101F2C1E9FFF3C1EAFFC4
:1032F000F22B000EF323000EE926010EEA2214C081
:10330000EFFF010EDBCF14F0020EDBCF15F015C07E
:1033100014F0156AF2C1E9FFF3C1EAFFF22B000EC7
:10332000F323000EE926010EEA2214C0EFFF02018A
:10333000010E5C6FE66EE66A5BEC1CF0E552E5524E
:1033400002D0050EDF6E9D8ADF50146E030EE15C25
:1033500003E200D0E16AE552E16E1450E552E7CF96
:10336000D9FF1200D9CFE6FFE1CFD9FF020EE12647
:10337000DF6A02015C5102E0000E4FD0D950010F0C
:10338000E66E000EDA20E66EF9EC1CF0E552E5522E
:1033900002015D51020A24E0030A0BE0020A06E082
:1033A000030A01E038D071EC23F035D071EC23F042
:1033B00032D00101F46BF56BF4C1E9FFF5C1EAFF0E
:1033C000F42B000EF523000EE926010EEA22010E71
:1033D000DBCFEFFF0201020E5D6F71EC23F01BD01B
:1033E0000101F00EF45D000EF5590FE2F4C1E9FFA2
:1033F000F5C1EAFFF42B000EF523000EE926010EBD
:10340000EA22010EDBCFEFFF03D00201030E5D6F56
:1034100071EC23F000D0DF5000D0146E020EE15C9E
:1034200002E2E16AE552E16E1450E552E7CFD9FFBE
:103430001200D9CFE6FFE1CFD9FFE652DF6A0201E1
:103440005D0502E0000E37D05C51010A0BE0010A75
:1034500001E02FD0E66A010EE66E5BEC1CF0E5524F
:10346000E55227D00101000ED880F255000EF35529
:1034700010E2F0C1E9FFF1C1EAFFEF50E66EDEECC9
:103480001CF0E5520101F02B000EF123F207F35B73
:10349000E9D7030EE66E07EC25F0E552DF6EE66A2B
:1034A000010EE66E5BEC1CF0E552E55202015C6B2E
:1034B00000D0DF5000D0E552E552E7CFD9FF12002F
:1034C000D9CFE6FFE1CFD9FFE652DF6A02015D51B5
:1034D000030A12E0010A09E0020A01E00ED0E66ADE
:1034E00007EC25F0E552DF6E08D0010EE66E07EC22
:1034F00025F0E552DF6E01D000D07CEC23F0020114
:10350000010E5D6FDF5000D0E552E552E7CFD9FFE5
:023510001200A7
:0E351200D9CFE6FFE1CFD9FF0A0EE126F90E70
:10352000DB50E66ED950080FE96EDACFEAFFE552BC
:10353000E750EE6EED6AFA0EDB50080801E2F1D0BA
:10354000080E146E156AFB0EDBCF08F0FC0EDBCF05
:1035500009F014C00DF015C00EF094EC26F0040E26
:1035600008C0DBFF050E09C0DBFFFB0EDBCF16F04A
:10357000FC0EDBCF17F0080E086E096A040EDBCFD5
:103580000DF0050EDBCF0EF0ECEC25F00650165CCE
:10359000146E07501758156E060E14C0DBFF070E89
:1035A00015C0DBFF060EDBCF14F0D950080FE96E13
:1035B000DACFEAFF1450E85005E0D890EE36ED3649
:1035C000E806FBE1FA0EDB50166E010E165204E01F
:1035D000E846FE0B1606FCE1FF0F146E156A14BEDA
:1035E0001568020E14C0DBFF030E15C0DBFFFB0ED7
:1035F000DBCF16F0FC0EDBCF17F0080E086E096A61
:10360000040EDBCF0DF0050EDBCF0EF0ECEC25F059
:103610000650165C146E07501758156ED950020FDD
:10362000E96EDACFEAFF1450E85005E0D890EE36A4
:10363000ED36E806FBE1040EDBCF14F0050EDBCF20
:1036400015F0FD0EDB501424E96EFE0EDB50152044
:10365000EA6EEF50DE6EDD6A010EE76E040EDBCF20
:1036600014F0050EDBCF15F0E7501426000E1522DE
:10367000FD0EDB501424E96EFE0EDB501520EA6EC1
:10368000EF50000EF350DF12020EDB1C186E030E1B
:10369000DB1C196EDE501814166EDD501914176EEF
:1036A000080EDB501610146E090EDB501710156E45
:1036B00014C0DEFF15C0DDFFDECF16F0DDCF17F042
:1036C000FF0E1616000E1716040EDBCF14F0050EB3
:1036D000DBCF15F0FD0EDB501424E96EFE0EDB503F
:1036E0001520EA6E16C0EFFFDECF16F0DDCF17F023
:1036F00017C016F0176A010EE76E040EDBCF14F048
:10370000050EDBCF15F0E7501426000E1522FD0E36
:10371000DB501424E96EFE0EDB501520EA6E16C055
:10372000EFFF0A0EE15C02E2E16AE552E16EE5526A
:10373000E7CFD9FF1200D9CFE6FFE1CFD9FF080EBE
:10374000E126146E156AFB0EDBCF08F0FC0EDBCF12
:1037500009F014C00DF015C00EF094EC26F0040E24
:1037600008C0DBFF050E09C0DBFFFB0EDBCF16F048
:10377000FC0EDBCF17F0080E086E096A040EDBCFD3
:103780000DF0050EDBCF0EF0ECEC25F00650165CCC
:10379000146E07501758156E060E14C0DBFF070E87
:1037A00015C0DBFFFA0EDB50166E010E165204E058
:1037B000E846FE0B1606FCE1FF0F146E156A14BEF8
:1037C0001568020E14C0DBFF030E15C0DBFF040EEC
:1037D000DBCF14F0050EDBCF15F0FD0EDB5014240B
:1037E000E96EFE0EDB501520EA6EEF50DE6EDD6AEC
:1037F000010EE76E040EDBCF14F0050EDBCF15F0E3
:10380000E7501426000E1522FD0EDB501424E96E3D
:10381000FE0EDB501520EA6EEF50000EF350DF1263
:10382000060EDBCF14F0D9CFE9FFDACFEAFF145050
:103830000F0B06E0EC52D890ED32EF32E806FAE1D9
:10384000020EDBCF14F0030EDBCF15F0D9CFE9FF6A
:10385000DACFEAFF1450EE161550ED16DF50146E55
:10386000080EE15C03E200D0E16AE552E16E14501B
:10387000E552E7CFD9FF1200D9CFE6FFE1CFD9FF5C
:10388000E652FE0EDB50070A0CE0060A07E0010ACA
:1038900003E0040EDF6E08D0DF6A06D0020EDF6E92
:1038A00003D0060EDF6E00D0DF5000D0E552E552A7
:0638B000E7CFD9FF120072
:0A38B600D9CFE6FFE1CFD9FFFE0EE7
:1038C000DB5002E1AB9801D0AB88FD0EDB5001E18B
:1038D00009D007D0DDC0FBFFDCC0FAFF0001DB51DF
:1038E000F96EF8DFE552E7CFD9FF1200D9CFE6FF36
:1038F000E1CFD9FF020EE1263C0EDF6EFA0EDBCFE0
:1039000007F0FB0EDBCF08F0FC0EDBCF09F0FD0E5D
:10391000DBCF0AF0075006E1E10E081803E1095079
:1039200001E10A502DE0075006E14B0E081803E1B3
:10393000095001E10A5020E0800E071806E1250E2B
:10394000081803E1095001E10A5012E0600E07185F
:1039500006E1090E081803E1095001E10A5004E0EC
:10396000DE52330EDD6E10D0DE52CF0EDD6E0CD087
:10397000DE52330EDD6E08D0DE52190EDD6E04D03D
:10398000DE52080EDD6E00D0010EDBCFE6FFE66AE8
:10399000DFCFE6FF84EC24F0E552E552E5529F8A42
:1039A000010E146E020EE15C03E200D0E16AE55202
:1039B000E16E1450E552E7CFD9FF1200D9CFE6FFF0
:1039C000E1CFD9FF8686140EE66EE5EC26F0E552CF
:1039D000FE0EDB50AD6EACA2FED78696140EE66EE0
:1039E000E5EC26F0E552010E00D0E552E7CFD9FF15
:1039F0001200D9CFE6FFE1CFD9FFE652CDEC25F09A
:103A0000DF6EFD0EDBCFE9FFFE0EDBCFEAFFDFCF7F
:103A1000EFFF9E9A010E00D0E552E552E7CFD9FFA5
:103A20001200DACFE4FFE2CFDAFFE9CFE4FFEACF1A
:103A3000E4FFF6CFE4FFF7CFE4FFF5CFE4FFF3CFE9
:103A4000E4FFF4CFE4FFFACFE4FFFBCFE4FF00EEA6
:103A500000F0140EE80403E3EECFE4FFFBD700EE22
:103A600014F0080EE80403E3EECFE4FFFBD7E652C0
:103A700007D0DDC0FBFFDCC0FAFF0001DB51F96EAF
:103A8000F8DFE55200EE1BF0080EE80403E3E5CF93
:103A9000EDFFFBD700EE13F0140EE80403E3E5CFCF
:103AA000EDFFFBD7E5CFFBFFE5CFFAFFE5CFF4FF56
:103AB000E5CFF3FFE5CFF5FFE5CFF7FFE5CFF6FF65
:103AC000E5CFEAFFE5CFE9FFE5CFDAFF1100DACF76
:103AD000E4FFE2CFDAFFE9CFE4FFEACFE4FFF6CF7D
:103AE000E4FFF7CFE4FFF5CFE4FFF3CFE4FFF4CF3B
:103AF000E4FFFACFE4FFFBCFE4FF00EE00F0140E8A
:103B0000E80403E3EECFE4FFFBD700EE14F0080E69
:103B1000E80403E3EECFE4FFFBD7E65207D0DAC0B8
:103B2000FBFFD9C0FAFF0001D851F96EF8DFE5526A
:103B300000EE1BF0080EE80403E3E5CFEDFFFBD732
:103B400000EE13F0140EE80403E3E5CFEDFFFBD71E
:103B5000E5CFFBFFE5CFFAFFE5CFF4FFE5CFF3FFBD
:103B6000E5CFF5FFE5CFF7FFE5CFF6FFE5CFEAFFBD
:0A3B7000E5CFE9FFE5CFDAFF110011
:063B7A00D9CFE6FFE1CF08
:103B8000D9FF090EE126070EDB6AFB0EDBCFE9FF4A
:103B9000FC0EDBCFEAFF050EEE1801E1ED5001E06F
:103BA00010D1010EE76EFD0EDBCFE9FFFE0EDBCF7D
:103BB000EAFFE750E926000EEA22EF50000EF3502C
:103BC000DE6EDD6A020EE76EFD0EDBCFE9FFFE0E54
:103BD000DBCFEAFFE750E926000EEA22EF50DF12C2
:103BE000DF2A010E01E3DB2A030EE76EFD0EDBCFB9
:103BF000E9FFFE0EDBCFEAFFE750E926000EEA22DE
:103C0000EF50000EF350E66ED950020FE96EDACF96
:103C1000EAFFE552E750EE6EED6A040EE76EFD0E28
:103C2000DBCFE9FFFE0EDBCFEAFFE750E926000E0F
:103C3000EA22EF50146E156AD950020FE96EDACFFE
:103C4000EAFF1450EE121550ED12020EDBCF14F005
:103C5000030EDBCF15F0010E145C000E155801E2C7
:103C6000AAD0020EDBCF16F0030EDBCF17F0D00E7A
:103C7000165C070E175801E39ED0FD0EDBCF08F04F
:103C8000FE0EDBCF09F0050E08C0DBFF060E09C0F3
:103C9000DBFFFB0EDBCFE9FFFC0EDBCFEAFFEE6ABA
:103CA000ED6A050EDBCFE9FFDB2A060EDBCFEAFF6C
:103CB00001E3DB2A020EEF6EFB0EDBCFE9FFFC0E09
:103CC000DBCFEAFFEE2A000EED22020EDB50070BDF
:103CD00015E0020EDBCF14F0030EDBCF15F00F0B57
:103CE00005E0D89015321432E806FBE1010E1426E7
:103CF000000E1522040E14C0DBFF12D0080E146E45
:103D0000156A020EDBCF08F0030EDBCF09F014C0FA
:103D10000DF015C00EF094EC26F0040E08C0DBFF89
:103D2000050EDBCFE9FFDB2A060EDBCFEAFF01E35E
:103D3000DB2A040EDBCFEFFFFB0EDBCFE9FFFC0E2F
:103D4000DBCFEAFFEE2A000EED22020EDBCFE6FF0C
:103D5000030EDBCFE6FFDECFE6FFDDCFE6FF050E8D
:103D6000DBCFE6FF060EDBCFE6FFBBEC07F0146E01
:103D7000060EE15E1450E76E080EE7CFDBFFDB5066
:103D80000BE0080EDBCFE6FF3CEC1CF0E552E76EE3
:103D9000070EE7CFDBFF0ED0040EDB50146E156A62
:103DA000FB0EDBCFE9FFFC0EDBCFEAFF1450EE2663
:103DB0001550ED2205D0030EF36E070EF3CFDBFF97
:103DC00005D0030EF36E070EF3CFDBFF070EDB50BB
:103DD000146E090EE15C03E200D0E16AE552E16E87
:0A3DE0001450E552E7CFD9FF12009E
:063DEA00D9CFE6FFE1CF96
:103DF000D9FF0A0EE126060EDB6AFB0EDBCFE9FFD8
:103E0000FC0EDBCFEAFF050EEE1801E1ED5001E0FC
:103E100004D1010EE76EFD0EDBCFE9FFFE0EDBCF16
:103E2000EAFFE750E926000EEA22EF50DE6EDD6A77
:103E3000D9CFE9FFDACFEAFFEE50ED6EEF6A020E5E
:103E4000E76EFD0EDBCFE9FFFE0EDBCFEAFFE750AA
:103E5000E926000EEA22EF50DF12DF2A010E01E30D
:103E6000DB2A030EE76EFD0EDBCFE9FFFE0EDBCF94
:103E7000EAFFE750E926000EEA22EF50E66ED9503D
:103E8000020FE96EDACFEAFFE552E750EE6EED6A17
:103E9000D950020FE96EDACFEAFFEE50ED6EEF6A0D
:103EA000040EE76EFD0EDBCFE9FFFE0EDBCFEAFF6F
:103EB000E750E926000EEA22EF50146E156AD95039
:103EC000020FE96EDACFEAFF1450EE121550ED1230
:103ED000020EDBCF14F0030EDBCF15F0010E145CE5
:103EE000000E155801E293D0020EDBCF16F0030E40
:103EF000DBCF17F07D0E165C000E175801E387D05C
:103F0000FD0EDBCF08F0FE0EDBCF09F0040E08C07B
:103F1000DBFF050E09C0DBFFFB0EDBCFE9FFFC0E6C
:103F2000DBCFEAFFEE6AED6A040EDBCFE9FFDB2AA6
:103F3000050EDBCFEAFF01E3DB2A040EEF6EFB0E7A
:103F4000DBCFE9FFFC0EDBCFEAFFEE2A000EED220D
:103F5000020E086E096ADBCF0DF0030EDBCF0EF008
:103F6000ECEC25F00650E66E040EDBCFE9FFDB2A11
:103F7000050EDBCFEAFF01E3DB2AE552E750EF6EE7
:103F8000FB0EDBCFE9FFFC0EDBCFEAFFEE2A000ED3
:103F9000ED22020EDBCFE6FF030EDBCFE6FFDECF26
:103FA000E6FFDDCFE6FF040EDBCFE6FF050EDBCF3D
:103FB000E6FFAAEC05F0146E060EE15E1450E76E03
:103FC000070EE7CFDBFFDB500BE0070EDBCFE6FF92
:103FD0003CEC1CF0E552E76E060EE7CFDBFF16D097
:103FE000020EDBCF14F0030EDBCF15F0010ED890DC
:103FF00014361536E806FBE1FB0EDBCFE9FFFC0EBD
:10400000DBCFEAFF1450EE261550ED2205D0030E4B
:10401000F36E060EF3CFDBFF05D0030EF36E060E34
:10402000F3CFDBFF060EDB50146E0A0EE15C03E2F9
:1040300000D0E16AE552E16E1450E552E7CFD9FFB6
:0240400012006C
:0E404200DACFE4FFE2CFDAFFE9CFE4FFEACF06
:10405000E4FFF6CFE4FFF7CFE4FFF5CFE4FFF3CFC3
:10406000E4FFF4CFE4FFFACFE4FF00EE00F0140E1B
:10407000E80403E3EECFE4FFFBD700EE14F0080EF4
:10408000E80403E3EECFE4FFFBD7E652F29400012D
:10409000F62B000EF723F82BF923FA2BFB23F05114
:1040A000F11107E005D0F1C0FAFF0001F051F96EFF
:1040B000FADFEEC0E6FFEFC0E6FF42EC26F0E55285
:1040C000E552E55200EE1BF0080EE80403E3E5CFED
:1040D000EDFFFBD700EE13F0140EE80403E3E5CF89
:1040E000EDFFFBD7E5CFFAFFE5CFF4FFE5CFF3FF18
:1040F000E5CFF5FFE5CFF7FFE5CFF6FFE5CFEAFF28
:10410000E5CFE9FFE5CFDAFF1100DACFE4FFE2CF38
:10411000DAFFE9CFE4FFEACFE4FFF6CFE4FFF7CF21
:10412000E4FFF5CFE4FFF3CFE4FFF4CFE4FFFACFF1
:10413000E4FF00EE00F0140EE80403E3EECFE4FF2A
:10414000FBD700EE14F0080EE80403E3EECFE4FF23
:10415000FBD7E6529E90F2C0E6FFF3C0E6FF26ECE6
:1041600026F0E552E5520001F451F51107E005D0C3
:10417000F5C0FAFF0001F451F96EFADFE55200EEE6
:104180001BF0080EE80403E3E5CFEDFFFBD700EEDC
:1041900013F0140EE80403E3E5CFEDFFFBD7E5CF02
:1041A000FAFFE5CFF4FFE5CFF3FFE5CFF5FFE5CF6D
:1041B000F7FFE5CFF6FFE5CFEAFFE5CFE9FFE5CF73
:1041C000DAFF1100D9CFE6FFE1CFD9FF9F0EE66EEF
:1041D0005EEC26F0E552FD0EDBCFEEF0FE0EDBCFFF
:1041E000EFF0FB0EDBCFF0F0FC0EDBCFF1F0FD0EBD
:1041F000DBCFE6FFFE0EDBCFE6FF42EC26F0E5521A
:10420000E552E552E7CFD9FF1200D9CFE6FFE1CF63
:10421000D9FFC50EE66EACEC25F0E552FD0EDBCF06
:10422000E6FFFE0EDBCFE6FF26EC26F0E552E55278
:104230009F80FD0EDBCFF2F0FE0EDBCFF3F0FB0E26
:10424000DBCFF4F0FC0EDBCFF5F0E552E7CFD9FF82
:0242500012005A
:0E42520000C1814001C0804101C0804100C117
:10426000814001C0804100C1814000C1814001C046
:10427000804101C0804100C1814000C1814001C036
:10428000804100C1814001C0804101C0804100C126
:10429000814001C0804100C1814000C1814001C016
:1042A000804100C1814001C0804101C0804100C106
:1042B000814000C1814001C0804101C0804100C1F6
:1042C000814001C0804100C1814000C1814001C0E6
:1042D000804101C0804100C1814000C1814001C0D6
:1042E000804100C1814001C0804101C0804100C1C6
:1042F000814000C1814001C0804101C0804100C1B6
:10430000814001C0804100C1814000C1814001C0A5
:10431000804100C1814001C0804101C0804100C195
:10432000814001C0804100C1814000C1814001C085
:10433000804101C0804100C1814000C1814001C075
:10434000804100C1814001C0804101C0804100C165
:10435000814000C0C101C30302C2C60607C705C52C
:10436000C404CC0C0DCD0FCFCE0E0ACACB0BC9099D
:1043700008C8D81819D91BDBDA1A1EDEDF1FDD1DAD
:104380001CDC14D4D515D71716D6D21213D311D1DD
:10439000D010F03031F133F3F23236F6F737F5352D
:1043A00034F43CFCFD3DFF3F3EFEFA3A3BFB39F95D
:1043B000F83828E8E929EB2B2AEAEE2E2FEF2DED2D
:1043C000EC2CE42425E527E7E62622E2E323E1219D
:1043D00020E0A06061A163A3A26266A6A767A565AD
:1043E00064A46CACAD6DAF6F6EAEAA6A6BAB69A91D
:1043F000A86878B8B979BB7B7ABABE7E7FBF7DBD2D
:10440000BC7CB47475B577B7B67672B2B373B1715C
:1044100070B050909151935352929656579755952C
:1044200094549C5C5D9D5F9F9E5E5A9A9B5B9959DC
:104430005898884849894B8B8A4A4E8E8F4F8D4DAC
:104440004C8C44848545874746868242438341811C
:024450008040AA
:0E445200D9CFE6FFE1CFD9FFE652DF6A020EB6
:10446000E76EF90EDBCF14F0FA0EDBCF15F0E75054
:104470001426000E1522200E145C000E15585AE268
:1044800002015A6B5B6B5AC2E9FF5BC2EAFF5A2B0F
:10449000000E5B233A0EE926020EEA22FE0EDBCF67
:1044A000EFFFFD0EDB5002E0FF0E01D0000EE66EC6
:1044B0005AC2E9FF5BC2EAFF5A2B000E5B233A0E99
:1044C000E926020EEA22E552E750EF6ED950F90FC5
:1044D000E96EFF0EDA20EA6E000ED880EE54000E70
:1044E000ED5427E2F90EDBCFE6FFFA0EDBCFE6FF55
:1044F000FB0EDBCFE6FFFC0EDBCFE6FF3A0E5A25C4
:10450000146E020E5B21156E14C0E6FF15C0E6FFA7
:1045100060EC25F0166E060EE15E1650F90EDBCF4C
:1045200008F0FA0EDBCF09F0085002015A270950B3
:104530005B2302D0040EDF6EDF5000D0E552E5525F
:10454000E7CFD9FF1200D9CFE6FFE1CFD9FF5AC29A
:10455000E6FF5BC2E6FF3A0EE66E020EE66E010E65
:10456000E76EFD0EDBCF14F0FE0EDBCF15F0E7504B
:104570001426000E152214C0E6FF15C0E6FF60ECFD
:1045800025F0166E060EE15E1650010E0201156A48
:104590005A25146E5B511522FB0EDBCFE9FFFC0E92
:1045A000DBCFEAFF14C0EEFF15C0EDFF000E00D018
:0845B000E552E7CFD9FF12002C
:0845B800D9CFE6FFE1CFD9FFE6
:1045C000060EE126DF68010EDB68020EDB6A030ED1
:1045D000DB6AFB0EDBCF14F0DB06FC0EDBCF15F045
:1045E00001E2DB061450151038E0010EDBCFE6FFC8
:1045F000FD0EDBCFE9FFDB2AFE0EDBCFEAFF01E396
:10460000DB2AEF50E552E718E66ED950040FE96E49
:10461000DACFEAFFE552E750EE6EED6A040EDBCF2B
:10462000F6FF050EDBCFF7FF520EF626420EF722FD
:104630000800F550DF18E76E010EE7CFDBFF040E30
:10464000DBCFF6FF050EDBCFF7FF520EF626430E4B
:10465000F7220800F550DF6EBCD7DFCF14F014C08E
:1046600015F0146A020E14C0DBFF030E15C0DBFF49
:10467000010EDB50146E156AD950020FE96EDACFC5
:10468000EAFF1450EE121550ED12020EDBCF14F0BB
:10469000030EDBCF15F014C0F3FF15C0F4FF060EB8
:1046A000E15C03E200D0E16AE552E16EE552E7CF5A
:0446B000D9FF12001C
:0C46B400D9CFE6FFE1CFD9FFC50EE66EBE
:1046C0008BEC25F0E552B190A282FD0EDBCFFCF021
:1046D000FE0EDBCFFDF0010E00D0E552E7CFD9FF93
:1046E0001200B190FCC0E6FFFDC0E6FF0AEC26F028
:1046F000E552E552B1801200B1901200DACFE4FF2A
:10470000E2CFDAFFE9CFE4FFEACFE4FFF6CFE4FF40
:10471000F7CFE4FFF5CFE4FFF3CFE4FFF4CFE4FFFE
:10472000FACFE4FFFBCFE4FF00EE00F0140EE80444
:1047300003E3EECFE4FFFBD700EE14F0080EE8042D
:1047400003E3EECFE4FFFBD7E652A19207D0E0C02F
:10475000FBFFDFC0FAFF0001DE51F96EF8DFE55222
:1047600000EE1BF0080EE80403E3E5CFEDFFFBD7F6
:1047700000EE13F0140EE80403E3E5CFEDFFFBD7E2
:10478000E5CFFBFFE5CFFAFFE5CFF4FFE5CFF3FF81
:10479000E5CFF5FFE5CFF7FFE5CFF6FFE5CFEAFF81
:0A47A000E5CFE9FFE5CFDAFF1100D5
:0647AA00D9CFE6FFE1CFCC
:1047B000D9FF090EE126410EF36E060EF3CFDBFFA3
:1047C000070EDB6A080EDB6A7AEC26F0140EE66E42
:1047D00052EC0EF0E552000EE66EE66AEF0EE66E63
:1047E000D80EE66EE2EC20F0E552E552E552E552D5
:1047F000EC0EE66E1D0EE66E770EE66EEC0EE66EC5
:1048000005EC21F0E552E552E552E55249EC00F0A5
:10481000DF6A1A0EDF5C0CE2410EDF24E66EDEEC8E
:104820001CF0E552E76E060EE7CFDBFFDF2AF1D77B
:1048300015EC00F00001640EF65D000EF75907E379
:10484000DBEC26F01DEC02F00001F66BF76BEBECF5
:1048500016F00400EFD7090EE15C02E2E16AE552CE
:0A486000E16EE552E7CFD9FF120028
:06486A00300EF66E000E98
:10487000F76E000EF86E01010900F550FB6F09009C
:10488000F550FC6F03E1FB6701D03DD00900F55006
:10489000F66F0900F550F76F0900F550F86F090041
:1048A0000900F550E96E0900F550EA6E09000900AB
:1048B0000900F550F96F0900F550FA6F0900090079
:1048C000F6CFFDF1F7CFFEF1F8CFFFF1F6C1F6FF1D
:1048D000F7C1F7FFF8C1F8FF0101F95302E1FA53FC
:1048E00007E00900F550EE6EF907F8E2FA07F9D78C
:1048F000FDC1F6FFFEC1F7FFFFC1F8FF0101FB0795
:08490000000EFC5BBFD71200A2
:08490800D9CFE6FFDACFE6FF8C
:10491000E1CFD9FFE2CFDAFFAC6AAB6AFD0EDBB0C4
:10492000AC88DBA202D0AC8CAB8CDBB4AC8EDBA64B
:1049300002D0AB8801D0AB8ADBB8AC84DBBAAB86E3
:10494000DBAC02D09D8A01D09D9ADBAE02D09D885F
:1049500001D09D98FB0EDB50AF6EFC0EDBCF15F047
:1049600015C014F0156A14507F6EAC8AAB8E949CFF
:10497000948EAC50100B04E0AC50800B01E1948C91
:0C498000E552E5CFDAFFE7CFD9FF1200C7
:04498C00D9CFE6FF9A
:10499000DACFE6FFE1CFD9FFE2CFDAFFE652DF6AF6
:1049A000FD0EDBCF15F015C014F0030E1514AA6E22
:1049B000FF0EE76EFC0EDBCF14F0E7501416156AFD
:1049C0001450A96EFB0EDB50A86EA69EA69CA68472
:1049D000F250800B01E0010EDF6EF29E550EA76EC5
:1049E000AA0EA76EA682A6B2FED7DF50E8B0F28E5E
:1049F000E8A0F29EA694E552E552E5CFDAFFE7CFB4
:044A0000D9FF1200C8
:0C4A04000001FF6B010E00D01200D9CFA2
:104A1000E6FFE1CFD9FF0001010EFF6FFE0EDBCFF5
:104A2000FEF0010E00D0E552E7CFD9FF1200D9CF3A
:104A3000E6FFE1CFD9FFE652DF6A0001FF510BE04C
:104A4000FD0EDBCFE9FFFE0EDBCFEAFFFEC0EFFF7E
:104A5000FF6B010EDF6EDF5000D0E552E552E7CF6D
:044A6000D9FF120068
:0C4A6400D9CFE6FFDACFE6FFE1CFD9FFA3
:104A7000E2CFDAFFFC0EDBCF14F0FD0EDBCF15F03A
:104A800015C014F0156A030E1414AA6EFF0EE76E1B
:104A9000FC0EDBCF14F0FD0EDBCF15F0E750141643
:104AA000156A1450A96EA69CA69EA6800000000060
:104AB000A85000D0E552E5CFDAFFE7CFD9FF1200CA
:104AC000D9CFE6FFDACFE6FFFA0EE3CFD9FFFB0E30
:104AD000E3CFDAFFFC0EE3CFE9FFFD0EE3CFEAFF01
:104AE000E9CFF3FFEACFF4FFF80EE35003E1F90E4C
:104AF000E35008E0F80EE30602E2F90EE306DECF2B
:104B0000EEFFF2D7FF0EE3CFDAFFE552FF0EE3CF61
:064B1000D9FFE55212007E
:0A4B1600D9CFE6FFDACFE6FFE1CFCA
:104B2000D9FFE2CFDAFFFD0EDB50360BB16EB36A70
:104B3000B26AA192FD0EDBAE02D0A08201D0A0929B
:104B4000DBA002D0B18E01D0B19EB180E552E5CF9D
:084B5000DAFFE7CFD9FF1200E4
:084B5800D9CFE6FFDACFE6FF3A
:104B6000E1CFD9FFE2CFDAFFFD0EDB507E0BCD6E39
:104B7000FD0EDBAC02D0CD8E01D0CD9ECF6ACE6AC9
:104B80009E90DBAE02D09D8001D09D90CD80E552FD
:0A4B9000E5CFDAFFE7CFD9FF1200EE
:064B9A00D9CFE6FFDACFDF
:104BA000E6FFE1CFD9FFE2CFDAFFE652F20E0201D3
:104BB0005E17ABAC03D05E91ABB05E81ABB45E85EB
:104BC000ABB25E87AE50DF6EDF50E552E552E5CF07
:084BD000DAFFE7CFD9FF120064
:084BD80008C012F008500D02A4
:104BE000F4CF07F0F3CF06F009500E02F4CF09F02E
:104BF000F3CF08F00D02F3500726F4500822E86ABC
:104C0000092212500E02F3500726F4500822E86AD7
:044C10000922000C69
:0C4C1400D9CFE6FFDACFE6FFE1CFD9FFF1
:104C2000E2CFDAFFE652E652FC0EDBCFDEFFDBCF4F
:104C3000DDFF010EDB50B36EDF50B26EE552E55280
:0C4C4000E552E5CFDAFFE7CFD9FF120004
:044C4C00D9CFE6FFD7
:104C5000DACFE6FFE1CFD9FFE2CFDAFFE652E65244
:104C6000FC0EDBCFDEFFDBCFDDFF010EDB50CF6EB6
:104C7000DF50CE6EE552E552E552E5CFDAFFE7CFE1
:044C8000D9FF120046
:0C4C8400D9CFE6FFDACFE6FFE1CFD9FF81
:104C9000E2CFDAFFE652E652FC0EDBCFDEFFDBCFDF
:104CA000DDFF010EDB50D76EDF50D66EE552E552C8
:0C4CB000E552E5CFDAFFE7CFD9FF120094
:044CBC00D9CFE6FF67
:104CC000DACFE6FFE1CFD9FFE2CFDAFFFD0EDB500E
:104CD0007F0BD56ED76AD66AF294FD0EDBAE02D09A
:104CE000F28A01D0F29AD58EE552E5CFDAFFE7CF0E
:044CF000D9FF1200D6
:0C4CF4000E0EC16E720ED36E989686965E
:104D0000949C948E9898869898929884926A956AC2
:104D1000976A936A966A996A9A909A929A949A96DE
:084D20009A989A9A98901200EB
:084D2800056A046A100EE76E33
:104D3000D89008360936043605360D50045C0E50FE
:104D4000055805E30D50045E0E50055A082AE72E5B
:044D5000F0D7120086
:0C4D5400FF0EE3501C6E480E01D04C0E08
:104D6000E76EE72EFED7E76AE72EFED71C2EF7D7B1
:044D7000000012002D
:0C4D7400600EF36E00EE00F00F0E01D890
:104D80001200EA6002D0EE6AFCD7F350E96012002C
:044D9000EE6AFCD7F4
:0C4D94001EEE00F02EEE00F0F86A019C0C
:104DA00035EC24F003EC00F0D5EC23F0FBD7120037
:104DB0000201606B12000201600503E1606B8690E6
:0A4DC00003D0010E606F8680120020
:064DCA00FF0EE350E84E6D
:104DD0001200000000D000D000D0E82EFAD7120058
:064DE000A6B2FED712008E
:0A4DE60000000000000000000000C3
:104DF00000000000000000000000000000000000B3
:104E000000000000000000000000000000000000A2
:104E10000000000000000000000000000000000092
:0E4E2000000000000000000000000000000084
:024E2E00000082
:104E3000021146450004EA3D00035E1600105A14B4
:104E400000066A130017B6180001E623000558266D
:104E5000000FCA2700027A3B00000000000000009B
:104E60000000000000000000000000000000000042
:014E70000041
:0F4E71004944454F4E494353003F065B4F666D22
:054E80007D077F6F00BB
:014E8500002C
:0A4E86003F065B4F666D7D077F6FEE
:014E90000021
:0F4E910000000000000000000000000000000012
:104EA0000000000000000000000000000000000002
:104EB00000000000000000000000000000000000F2
:104EC00000000000000000000000000000000000E2
:104ED00000000000000000000000000000000000D2
:104EE00000000000000000000000000000000000C2
:084EF0000000000000000000BA
:020000040030CA
:0100010008F6
:010002001BE2
:0100030012EA
:01000400F308
:010005008377
:010006008178
:01000800F106
:010009008076
:01000A00FFF6
:01000B00E014
:01000C00FFF4
:01000D0040B2
:00000001FF
